:100000000C9434000C943E000C943E000C943E0082
:100010000C943E000C943E000C943E000C943E0068
:100020000C943E000C943E000C943E000C943E0058
:100030000C943E000C943E000C943E000C943E0048
:100040000C943E000C943E000C943E000C943E0038
:100050000C943E000C943E000C943E000C943E0028
:100060000C943E000C943E0011241FBECFEFD8E04C
:10007000DEBFCDBF0E9440000C9462000C940000D3
:1000800080E28AB914B880E385B983E284BD83E055
:1000900085BD80E226E99FED3FEF1C9904C01D9BC2
:1000A00002C088BD8AB91D9904C01C9B02C028BD2E
:1000B0008AB91C9905C01D9903C038BD8AB9EDCF16
:0800C0009AB9EBCFF894FFCFD1
:00000001FF
